:020000042000DA
:10000000F8FF002051040020E9010020D101002068
:10001000E9010020E9010020E901002000000000C2
:10002000000000000000000000000000E9010020C6
:10003000E901002000000000E9010020E9010020A2
:10004000E9010020E9010020E9010020E901002088
:10005000E9010020E9010020E9010020E901002078
:10006000E9010020E9010020E9010020E901002068
:10007000E9010020E9010020E9010020E901002058
:10008000E9010020E9010020E9010020E901002048
:10009000E9010020E9010020E9010020E901002038
:1000A000E9010020E9010020E9010020E901002028
:1000B000E9010020E9010020E9010020E901002018
:1000C000E9010020E9010020E9010020E901002008
:1000D000E9010020E9010020E9010020E9010020F8
:1000E000E9010020E9010020E9010020E9010020E8
:1000F000E9010020E9010020E9010020E9010020D8
:10010000E9010020E9010020E9010020E9010020C7
:10011000E9010020E9010020E9010020D9190020AF
:10012000E9010020E9010020E9010020E9010020A7
:08013000E9010020E9010020B3
:1001400080B483B000AF7860002318460C37BD46FA
:100150005DF8047B704700BF90B58DB002AF78604A
:100160007B681B687B627B685B683B627B689B6823
:10017000FB617B68DB68BB617B681B697B617B68BB
:100180005B693B617B689B69FB607B68DB69BB608B
:10019000F9683A69BC687B6900930A48234600F015
:1001A00087FA796A3A6AFC69BB6900930648234674
:1001B00000F07EFABFF34F8FBFF36F8F034800F05C
:1001C00045FAFEE7588A00208C8A0020C08A002069
:1001D00072B61EF0040F0CBFEFF30880EFF3098036
:1001E000004A10475901002072B61EF0040F0CBFE0
:1001F000EFF30880EFF309808169DFF804201047EE
:100200000502002090B58FB002AF7860764BFB629C
:10021000764BBB62764B7B62764B3B62EFF305839A
:10022000FB61754800F012FA3B6A1A68FB6A1B68AA
:100230007248F96900F03CFAFB6A1B68BB61BB6954
:100240001B0ADBB27B61BB69DBB23B61BB691B0C88
:10025000FB607B6903F08003002B05D0BB6A1B6841
:100260006748194600F024FA7B6903F00103002B6C
:1002700002D0644800F0EAF97B6903F00203002B26
:1002800002D0614800F0E2F97B6903F00403002B1F
:1002900002D05E4800F0DAF97B6903F00803002B16
:1002A00002D05B4800F0D2F97B6903F01003002B09
:1002B00002D0584800F0CAF93B6903F08003002BD4
:1002C00005D07B6A1B685448194600F0F1F93B6978
:1002D00003F00103002B02D0504800F0B7F93B694E
:1002E00003F00203002B02D04D4800F0AFF93B6948
:1002F00003F00803002B02D04A4800F0A7F93B693D
:1003000003F01003002B02D0474800F09FF9FB6870
:1003100003F00103002B06D07B6818331B684348A9
:10032000194600F0C5F9FB6803F00203002B06D064
:100330007B6818331B683E48194600F0B9F9FB6822
:1003400003F00403002B06D07B6818331B68394880
:10035000194600F0ADF9FB6803F00803002B06D046
:100360007B6818331B683448194600F0A1F9FB6814
:1003700003F48073002B06D07B6818331B682F486A
:10038000194600F095F9FB6803F40073002B06D0C2
:100390007B6818331B682A48194600F089F97B6886
:1003A000183319687B6814331A687B681C331C681F
:1003B0007B6810331B6800932248234600F078F9CD
:1003C0007B6819687B6804331A687B6808331C688B
:1003D0007B680C331B6800931B48234600F068F9C8
:1003E0001A4800F033F9FEE728ED00E038ED00E0B0
:1003F00034ED00E004ED00E0C48A0020E88A00202B
:10040000088B0020348B00204C8B0020648B002054
:10041000808B0020988B0020B48B0020E88B00207C
:10042000008C0020188C0020308C0020448C002090
:100430006C8C0020908C0020B08C0020D48C00208C
:10044000FC8C0020208D0020488D0020C08A0020D8
:1004500000F052F80E4A0F4B9A420BD00D4C0C4D47
:1004600005E023461C1D2A46151D12681A600A4B1A
:100470009C42F6D3094C02E0002323600434084B6D
:100480009C42F9D300F03EF801F04AFCFEE700BFC1
:10049000A8920020A8920020809B0020809B002032
:1004A000649C002080B485B000AF78607B68FB60FE
:1004B00002E0FB68013BFB60FB68002BF9DC7B681A
:1004C000FB6002E0FB68013BFB60FB68002BF9DC92
:1004D0007B68FB6002E0FB68013BFB60FB68002B74
:1004E000F9DC1437BD465DF8047B704780B500AF7A
:1004F00000F024FB80BD00BF80B500AF00F08EF897
:1005000080BD00BF80B500AF00F092F880BD00BF95
:1005100080B400AF054B064A5A61044B4FF4E02209
:100520005A62BD465DF8047B704700BF00ED00E0F5
:100530000102040080B582B000AF00237B6000237D
:100540003B603B685A1C3A60184600214FF4004259
:100550004FF0427300F0ACFD02467B6813447B60B1
:100560003B685A1C3A6018464FF080514FF0805259
:10057000114B00F09DFD02467B6813447B603B6895
:100580005A1C3A6018464FF000514FF480324FF039
:10059000427300F08DFD02467B6813447B607B68EC
:1005A000002B04D100F0EAFD044800F04FF87B680E
:1005B00018460837BD4680BD00000203708D00203C
:1005C00080B500AF00F0CEFC80BD00BF80B582B02A
:1005D00000AF0023FB710AE097F9073018460421A9
:1005E00000F042FDFB79DBB20133DBB2FB7197F91E
:1005F00007303D2BF0DD002000F028FD0837BD4618
:1006000080BD00BF80B500AF00F06CFE00F07EFE44
:1006100000F072FE00F08EFE80BD00BF80B500AF1E
:10062000FFF776FFFFF7CCFF0023184680BD00BF21
:1006300080B582B000AF00237B60FFF7E3FFFFF7D8
:10064000C5FF002318460837BD4680BD80B485B07D
:1006500000AF7860144BFB60144BBB601BE000BF25
:10066000FB681B6803F02003002BF9D07B681B7824
:100670000A2B09D1BB680D221A6000BFFB681B68FA
:1006800003F02003002BF9D07B685A1C7A601B789A
:100690001A46BB681A607B681B78002BDFD11437C1
:1006A000BD465DF8047B7047147002410070024142
:1006B0000FB480B5C8B002AF0023C7F80C312023B7
:1006C00087F80B310023C7F804310AE03A46D7F81F
:1006D0000431134400221A70D7F804310133C7F8EB
:1006E0000431D7F80431FF2BF0DD07F59273C7F81A
:1006F0000031D7F820315A1CC7F820211B7887F821
:100700001731F5E097F81731252B09D0D7F80C31C0
:100710005A1CC7F80C213A4697F81711D154D6E065
:100720000023C7F81031D7F820315A1CC7F8202110
:100730001B7887F8173124E097F81731302B03D155
:10074000302387F80B3114E0D7F8102113469B00B3
:1007500013445B001A4697F81731303B1344C7F82F
:100760001031D7F810314F2B03DD6C48FFF76EFFC7
:10077000CDE0D7F820315A1CC7F820211B7887F824
:10078000173197F817312F2B03D997F81731382BDA
:10079000D2D997F81731583B202B00F2948001A250
:1007A00052F823F029080020C7080020C7080020BD
:1007B000C7080020C7080020C7080020C70800207D
:1007C000C7080020C7080020C7080020C70800206D
:1007D000C708002091080020C7080020C708002093
:1007E000C7080020C7080020C7080020C70800204D
:1007F000C7080020C7080020C7080020C70800203D
:10080000C7080020C7080020C7080020C70800202C
:10081000C7080020C70800205D080020C708002086
:10082000C7080020290800203A46D7F80C31D11813
:10083000D7F800311A1DC7F800211A6897F80B3154
:10084000009308460021D7F8103100F0D3F8024693
:10085000D7F80C311344C7F80C3138E03A46D7F8D2
:100860000C31D118D7F800311A1DC7F800211A68C9
:1008700097F80B31009308460121D7F8103100F0AA
:10088000B9F80246D7F80C311344C7F80C311EE012
:100890003A46D7F80C31D118D7F800311A1DC7F8ED
:1008A00000211B681A4697F80B3100930846022175
:1008B000D7F8103100F09EF80246D7F80C311344F7
:1008C000C7F80C3103E01648FFF7C0FE1FE0D7F869
:1008D0000C31FE2B04DD3B46002283F8FF200CE0A8
:1008E000D7F820315A1CC7F820211B7887F8173118
:1008F00097F81731002B7FF405AF3A46D7F80C3143
:10090000134400221A703B461846FFF79FFE07F576
:100910008C77BD46BDE8804004B07047808D0020D4
:100920009C8D002080B485B000AF0346FB71094B5D
:10093000FB60094BBB6000BFFB681B6803F0200332
:10094000002BF9D0FA79BB681A601437BD465DF800
:10095000047B7047147002410070024180B483B080
:1009600000AF0A4B7B600A4B3B6000BF7B681B6893
:1009700003F00103002BF9D03B681B68DBB218467B
:100980000C37BD465DF8047B704700BF1470024110
:100990000070024180B483B000AF084B7B607B687D
:1009A0001B6803F00103002B14BF01230023DBB2FB
:1009B00018460C37BD465DF8047B70471470024141
:1009C00080B5A6B002AFF860B9607A6007F1100296
:1009D0007B68009310460649FA68BB6802F0A6F9E6
:1009E00007F110031846FFF731FE9037BD4680BD72
:1009F000B48D002090B492B000AFF860B9607A6016
:100A00003B604C4A07F120031068516803C3128908
:100A10001A80494B07F11004186859689A68DB6816
:100A20000FC4FB687B64BB68002B01D1102300E07E
:100A30000A233B630023FB630023BB637B687B6368
:100A40007B68FB627B6C002B6ED0BB68022B0AD1EB
:100A5000FB6A002B07DA7B6C5A1C7A642D221A7011
:100A6000FB6A5B427B6307E0FB6B0133FB633B6B21
:100A70007A6BB2FBF3F37B637B6B002BF4D1FB6BE4
:100A8000002B02D1FB6B0133FB63FA6B3B689A428C
:100A90000FDA3A68FB6BD31ABB6305E07B6C5A1C18
:100AA0007A6497F850201A70BB6B5A1EBA63002BF9
:100AB000F4D1FB6B013B3B642BE0BB68002B10D0F7
:100AC0003B6C7A6CD1183A6B7B68B3FBF2F002FB9B
:100AD00000F29B1A07F14802134413F8283C0B70EC
:100AE0000FE03B6C7A6CD1183A6B7B68B3FBF2F089
:100AF00002FB00F29B1A07F14802134413F8383C3A
:100B00000B703B6B7A68B2FBF3F37B603B6C013B91
:100B10003B643B6C002BD0DAFB6B7A6C13447B6438
:100B20007A6CFB68D31A00E0002318464837BD46AC
:100B300090BC7047E48D0020F08D002080B582B01D
:100B400000AF084B7B600848FFF780FD7B68002200
:100B50001A6000BF7B681B68002BFBD00837BD46BE
:100B600080BD00BF1C700241008E002080B485B0A3
:100B700000AF78607B6803F00703FB600B4BDB681A
:100B8000BB60BA684FF6FF031340BB60FB681A02F4
:100B9000BB681A43064B1343BB60044ABB68D3606F
:100BA0001437BD465DF8047B704700BF00ED00E0E0
:100BB0000000FA0580B483B000AF0346FB7108491A
:100BC00097F907305B09FA7902F01F02012000FA59
:100BD00002F241F823200C37BD465DF8047B7047D4
:100BE00000E100E080B483B000AF0346FB71094927
:100BF00097F907305B09FA7902F01F02012000FA29
:100C000002F2203341F823200C37BD465DF8047B07
:100C1000704700BF00E100E080B483B000AF03463E
:100C20003960FB7197F90730002B0BDA0D49FB791E
:100C300003F00F03043B3A68D2B25201D2B20B4424
:100C40001A7609E0084997F907303A68D2B252019A
:100C5000D2B20B4483F800230C37BD465DF8047B09
:100C6000704700BF00ED00E000E100E080B483B019
:100C700000AF0346FB7197F90730002B0ADA0D4AE3
:100C8000FB7903F00F03043B13441B7EDBB25B09CB
:100C9000DBB208E0084A97F90730134493F80033B1
:100CA000DBB25B09DBB218460C37BD465DF8047B4E
:100CB000704700BF00ED00E000E100E080B400AF4D
:100CC000BFF34F8FBFF36F8F084B0022C3F8502242
:100CD000064A064B5B6943F400335361BFF34F8F01
:100CE000BFF36F8FBD465DF8047B704700ED00E0F9
:100CF00080B400AFBFF34F8FBFF36F8F084A084B2C
:100D00005B6923F400335361054B0022C3F8502282
:100D1000BFF34F8FBFF36F8FBD465DF8047B704705
:100D200000ED00E080B400AFBFF34F8FBFF36F8FD3
:100D3000054B0022C3F85022BFF34F8FBFF36F8FD4
:100D4000BD465DF8047B704700ED00E080B485B0DF
:100D500000AF1D4B0022C3F88420BFF34F8F1A4B06
:100D6000D3F880307B607A68184B13405B0BFB60D4
:100D70007A6841F6F8731340DB08BB601249FB68E0
:100D80005A0143F6E0731340BA6892071343C1F85F
:100D90006032BB685A1EBA60002BEFD1FB685A1E46
:100DA000FA60002BE4D1BFF34F8F074A064B5B6913
:100DB00043F480335361BFF34F8FBFF36F8F14370A
:100DC000BD465DF8047B704700ED00E000E0FF0FDA
:100DD00080B485B000AF1C4B0022C3F88420BFF361
:100DE0004F8F194BD3F880307B60174A164B5B69E5
:100DF00023F4803353617A68144B13405B0BFB6020
:100E00007A6841F6F8731340DB08BB600E49FB6853
:100E10005A0143F6E0731340BA6892071343C1F8CE
:100E20007432BB685A1EBA60002BEFD1FB685A1EA1
:100E3000FA60002BE4D1BFF34F8FBFF36F8F1437ED
:100E4000BD465DF8047B704700ED00E000E0FF0F59
:100E500080B485B000AF194B0022C3F88420BFF3E3
:100E60004F8F164BD3F880307B607A68144B134059
:100E70005B0BFB607A6841F6F8731340DB08BB60DC
:100E80000E49FB685A0143F6E0731340BA689207B3
:100E90001343C1F86032BB685A1EBA60002BEFD111
:100EA000FB685A1EFA60002BE4D1BFF34F8FBFF3EB
:100EB0006F8F1437BD465DF8047B704700ED00E08E
:100EC00000E0FF0F80B487B000AF786039603B6806
:100ED0007B617B683B612023FB60BFF34F8F0BE09E
:100EE0000B4A3B69C2F85C32FB683A6913443B61C8
:100EF0007A69FB68D31A7B617B69002BF0DCBFF356
:100F00004F8FBFF36F8F1C37BD465DF8047B704772
:100F100000ED00E080B487B000AF786039603B68D6
:100F20007B617B683B612023FB60BFF34F8F0BE04D
:100F30000B4A3B69C2F86832FB683A6913443B616B
:100F40007A69FB68D31A7B617B69002BF0DCBFF305
:100F50004F8FBFF36F8F1C37BD465DF8047B704722
:100F600000ED00E080B400AFBFF34F8FBFF36F8F91
:100F7000074B0722C3F89022054B0722C3F894229F
:100F8000BFF34F8FBFF36F8FBD465DF8047B704793
:100F900000ED00E080B400AFBFF34F8FBFF36F8F61
:100FA0000B4A0B4BD3F8903223F00103C2F8903276
:100FB000074A074BD3F8943223F00103C2F8943266
:100FC000BFF34F8FBFF36F8FBD465DF8047B704753
:100FD00000ED00E080B483B000AF7860044A7B6825
:100FE00023F07F0393600C37BD465DF8047B7047A8
:100FF00000ED00E080B582B000AF0346FB7197F9C9
:1010000007301846FFF7D6FD0837BD4680BD00BF44
:1010100080B582B000AF0346FB7197F907301846E0
:10102000FFF7E0FD0837BD4680BD00BF80B400AFCC
:1010300062B6BD465DF8047B704700BF80B400AF68
:1010400072B6BD465DF8047B704700BF80B582B0C4
:1010500000AF78607B68072B00D902E07868FFF763
:1010600085FD0837BD4680BD80B582B000AF034620
:101070003960FB713B68072B00D905E097F9073011
:1010800018463968FFF7C8FD0837BD4680BD00BF68
:1010900080B582B000AF0346FB7197F90730184660
:1010A000FFF7E4FD034618460837BD4680BD00BF84
:1010B00080B586B000AFF860B9607A603B6000230D
:1010C0003B612C4B1B68002B02D16FF010034CE0EE
:1010D0007B681F2B02D86FF0030346E03A68264B6B
:1010E0001340002B02D06FF003033EE001233B616D
:1010F00000237B617B68B3F1FF3F02D120237B613A
:101100000AE005E07B6901337B613B695B003B6181
:101110003A697B689A42F5D9FFF790FFBFF34F8F8A
:10112000BFF36F8F134AFB689360124A114B1B6920
:1011300023F0010313610F4A7B69012101FA03F3D4
:101140005B421946BB680B40D3600A497B69013B8F
:101150005A003B68134343F001030B61BFF34F8F09
:10116000BFF36F8FFFF762FF002318461837BD46A5
:1011700080BD00BF90ED00E0C000C0E880B400AFCB
:10118000074B1B68002B02D16FF0100303E0044BE8
:1011900005225A6000231846BD465DF8047B70475F
:1011A00090ED00E080B400AF094B1B68002B02D12A
:1011B0006FF0100306E0064A054B5B6823F001035D
:1011C000536000231846BD465DF8047B704700BF9E
:1011D00090ED00E080B582B000AF7860FFF72EFFA1
:1011E000BFF34F8FBFF36F8F084A7B689360074A46
:1011F000064B1B6943F001031361BFF34F8FBFF32D
:101200006F8FFFF713FF0837BD4680BD90ED00E0FC
:1012100080B582B000AF7860FFF710FFBFF34F8F4B
:10122000BFF36F8F084A7B689360074A064B1B69C0
:1012300023F001031361BFF34F8FBFF36F8FFFF7ED
:10124000F5FE0837BD4680BD90ED00E080B584B066
:1012500000AF786039607B6803F01F03002B0CD06F
:101260007A687B6803F01F03D31AFB607A68FB6817
:10127000D21A3B681344BB6003E07B68FB603B68A9
:10128000BB60F868B968FFF71DFEBFF34F8FBFF36F
:101290006F8F1037BD4680BD80B584B000AF7860D9
:1012A00039607B6803F01F03002B0CD07A687B68E1
:1012B00003F01F03D31AFB607A68FB68D21A3B68FD
:1012C0001344BB6003E07B68FB603B68BB60F8686D
:1012D000B968FFF71FFEBFF34F8FBFF36F8F103753
:1012E000BD4680BD80B500AFFFF7B2FDBFF34F8FA5
:1012F000BFF36F8F80BD00BF80B500AFFFF712FD59
:10130000BFF34F8FBFF36F8F80BD00BF80B500AFBD
:10131000FFF71CFDBFF34F8FBFF36F8F80BD00BF82
:1013200080B500AFFFF754FDBFF34F8FBFF36F8F52
:1013300080BD00BF80B500AFFFF7C0FCBFF34F8F8B
:10134000BFF36F8F80BD00BF80B500AFFFF7D0FC4B
:10135000BFF34F8FBFF36F8F80BD00BF80B487B0E6
:1013600000AF0346B9607A60FB73FB7B012B04D1AD
:10137000BB6843F080637B6101E0BB687B617B6994
:101380001A687B681A6000235BB218461C37BD469A
:101390005DF8047B704700BF80B483B000AF786015
:1013A00039607B683A681A6000235BB218460C37D4
:1013B000BD465DF8047B7047B0B586B000AFC7E9A5
:1013C0000001D7E90023104619462CA3D3E90023D6
:1013D00007F092F802460B46053243F10003C7E9D5
:1013E000042300201C49002200F04CF800201B4977
:1013F000002200F047F800201749012200F042F8CF
:1014000000201749174A00F03DF800201649154AF8
:1014100000F038F8D7E904231C0000252346FB60C0
:1014200000201249FA6800F02DF83B69FB600020AB
:101430000F49FA6800F026F800200849012200F060
:1014400021F80C48D7E9042300F0AAFD0A4B012239
:101450001A701837BD46B0BD900130408C01304045
:10146000940130400065CD1D98013040A00130400E
:101470009C013040188E0020C99B002000CA9A3B76
:101480000000000080B586B000AF0346B9607A6006
:10149000FB730023FB75FB7B002B06D1B8687968D2
:1014A000FFF77AFF0346FB750FE00B4B1B78002B11
:1014B0000BD0FB7B012B08D1BB6843F0806318463F
:1014C0007968FFF769FF0346FB75FB7D5BB2184641
:1014D0001837BD4680BD00BFCA9B0020B0B487B09E
:1014E00000AF3C4684E80F00BB6818464FF000018F
:1014F000D7E90023104C04FB03F5002404FB02F49D
:101500002C440D4DA2FB05231C442346121843EB2B
:1015100001034FF0FF304FF6FF7102EA000203EAC9
:101520000103C7E90423D7E90423104619461C37F1
:10153000BD46B0BC704700BF00CA9A3BB0B58EB084
:1015400006AFC7E902011346FB71D7E90223C7E9D9
:101550000623FB79002B0AD04FF000004FF48031B6
:10156000D7E90223821A61EB0303C7E90223D7E913
:1015700002231C00002523467B61BB683B610020E1
:1015800013497A69FFF77EFF002012493A69FFF795
:1015900079FFFB79002B01D00F4900E00F49FB795F
:1015A000002B01D00C4B00E00C4B0093D7E9062335
:1015B000CDE902237B6904933B6905930848D7E989
:1015C000062300F0EDFC002318462037BD46B0BDD1
:1015D0003402304030023040488E00204C8E0020D3
:1015E000508E002000000000F0B597B004AF3E46DA
:1015F00086E80F00002387F84730FFF71FFD3B46C2
:101600000FCBFFF76BFFC7E90A01D7E90023844935
:10161000C1E90023BB68824A9360824BD3E9000191
:10162000D7E90A23994208BF90420AD37D4BD3E9F8
:101630000001D7E90A23821A61EB0303C7E90C23EF
:1016400009E0784BD3E90023D7E90A01821A61EB5C
:101650000303C7E90C23724B9B6818464FF0000147
:10166000D7E90C23121843EB0103C7E90823D7E994
:1016700008231046194666A3D3E9002306F03CFF71
:10168000674B9A60664B9B685B0A674AA2FB032321
:10169000DB091A464FF000036149D1E90001121835
:1016A00043EB01035E49C1E900235D4B0FCBFFF71C
:1016B00015FF02460B465B49C1E90023D7E90A0141
:1016C000D7E91823994208BF904209D3D7E90A0104
:1016D000D7E91823821A61EB0303C7E90E230BE055
:1016E000D7E91801D7E90A23821A61EB0303C7E996
:1016F0000E23012387F84730D7E90E236FF07F4090
:101700004FF00001994208BF904215D3474B1B7818
:10171000002B07D04648D7E90E2300F041FC434B8D
:1017200000221A70434B1B78002B04D1D7E9180113
:10173000FFF742FE63E062E0D7E90E236FF07F40DF
:101740004FF0000102EA000203EA0103C7E90623A1
:10175000D7E9062338484FF00001994208BF90426C
:1017600008D3D7E90E01D7E90623821A61EB0303F8
:10177000C7E90E232D4B01221A70D7E90E2313431C
:101780003DD0D7E90E0106F0BFFB02460B461046DE
:10179000194621A3D3E9002306F072FE0346002B6D
:1017A00026D0D7E90A231C00002523467B61BB6AAB
:1017B0003B6197F84730002B01D0204900E02049D9
:1017C000D7E90A23CDE900237B6902933B690393A0
:1017D0001C48D7E90E2300F0E3FB00201A497A6980
:1017E000FFF750FE002019493A69FFF74BFE06E06B
:1017F00097F84730D7E90E011A46FFF79FFEFFF72B
:1018000015FC002318464C37BD46F0BDAFF30080F1
:1018100000CA9A3B00000000000000B08EF02B428E
:10182000A89B0020B89B0020834B0400AC920020B2
:101830007C8E0020C99B0020FFFF7F00488E002087
:101840004C8E0020AC8E0020100030400C00304048
:10185000B0B58CB000AFF860C7E900235A4BD3E9AC
:101860000023D7E90001994208BF904235D3564B77
:10187000D3E90023D7E90001821A61EB0303C7E92A
:101880000A23524B9B6818464FF00001D7E90A2300
:10189000121843EB0103C7E90823D7E908231046D0
:1018A000194647A3D3E9002306F026FE474B9A606A
:1018B000464BD3E90045D7E908231046194640A313
:1018C000D3E9002306F018FE02460B46121943EB3B
:1018D00005033E49C1E900235DE03B4BD3E900012C
:1018E000D7E90023821A61EB0303C7E90A23D7E98A
:1018F0000A231046194632A3D3E9002306F0FCFD63
:10190000C7E90623D7E90A23104619462CA3D3E9D1
:10191000002306F0F1FD02460B46C7E904232B4BDA
:101920009B6818464FF00001D7E90623994208BF8B
:1019300090421FD2254BD3E9002312F1FF3243F12D
:10194000FF332249C1E90023204B9B6818464FF022
:101950000001D7E90623821A61EB030318A1D1E93C
:101960000001121843EB0103C7E908233B6A174A39
:10197000936005E0154B9A68BB69D31A134A9360CC
:10198000124BD3E90001D7E90423821A61EB030368
:101990000E49C1E900230C49D7E90023C1E900231E
:1019A000FB68092B07D10A4B01221A700949D7E9B4
:1019B0000023C1E900233037BD46B0BDAFF300803E
:1019C00000CA9A3B00000000B89B0020A89B0020A2
:1019D000C89B0020C09B00202DE9B04390B006AF0B
:1019E0000023FB614F4B1B6801334E4A1360FFF726
:1019F00025FB07F10C0300204B491A46FFF7AEFC0C
:101A00004A4B1B680133494A1360FB68002B08D01E
:101A1000474B1B680133464A1360FB681A46454B27
:101A20001A604FF0FF33BB60BB68002042491A4682
:101A3000FFF728FD07F10803002040491A46FFF789
:101A40008DFCBB6803F4FE539B097B627B6AFB61E0
:101A5000BB681A463A4B1A60FB693A4A1360002386
:101A60003B6250E007F10803002037491A46FFF7B0
:101A700075FC3B1D002035491A46FFF76FFC7B685B
:101A80001A46334B1A60BB681A46324B1A607B6A9F
:101A9000BB61BB69002B33D07B6803F4F8039B0C5C
:101AA000BB617B689BB27B627B6A7B607B681A460A
:101AB0004FF0000315000024BB681A464FF00003E6
:101AC00042EA040243EA0503C7E90423B869D7E9F7
:101AD0000423FFF7BDFE204BD3E900891E4B996814
:101AE0001E4BD3E900230091CDE90223D7E904235B
:101AF000CDE904231A48B96942464B4600F050FA32
:101B00003B6A01333B623A6AFB699A42AAD3FB689B
:101B1000002B00D100E06CE7FFF788FA2837BD46BC
:101B2000BDE8B083809B002028023040949B0020B9
:101B3000989B0020909B00202C0230401C023040DB
:101B40008C9B0020889B00202C00304030003040CF
:101B5000A09B00209C9B0020A89B0020B89B0020FD
:101B6000F08E002080B584B000AF78607B68FB60A9
:101B700000F03EFA0346FB72FB7A0A2B07D00D2BCE
:101B800005D0002B0AD1FA687B68D31A0CE0FB68F9
:101B900000221A70FA687B68D31A05E0FB685A1CA9
:101BA000FA60FA7A1A70E3E718461037BD4680BD2E
:101BB0002DE9F04F9FB008AFF862B96207F1540207
:101BC00007F1500607F14C03009307F14803019316
:101BD00007F14403029307F14003039307F1300335
:101BE000049307F13C03059307F13803069307F1CB
:101BF00034030793F86A4849334600F003FD03466F
:101C00000A2B05D0454800F0CBF94FF0FF337EE0BA
:101C10007B6C013B18464FF0000102460B469218C0
:101C200043EB0303121843EB01034FEA031B4BEA98
:101C3000127B4FEA021ABAEB020A6BEB030B4FEA74
:101C40000B1949EA1A794FEA0A18B8EB0A0869EB46
:101C50000B094FEAC9137B627B6A43EA58637B62D4
:101C60004FEAC8133B62D7E90889404649467B6D75
:101C70001A464FF000031E01FE61FE6946EA127625
:101C8000FE611301BB61D7E906231D0145EA127508
:101C90001401A41A65EB03052B017B617B6943EA00
:101CA00014737B6123013B61D7E90423121B63EBAF
:101CB0000503801841EB03013B6D1A464FF000030A
:101CC0009C00FC60FC6844EA9274FC609300BB607A
:101CD000D7E902231C017C607C6844EA12747C60B2
:101CE00014013C60D7E90045A41A65EB03052246C0
:101CF0002B46801841EB0301FB6C1A464FF00003A2
:101D0000121843EB0103B96AC1E900230023184606
:101D10005C37BD46BDE8F08F248F00205C8F00202B
:101D200080B59CB002AF2D4800F06AF803467B6690
:101D3000FFF784F93720FFF75DF9FFF777F9002304
:101D40003B66002026493A6EFFF79CFB00233B666A
:101D5000002024493A6EFFF795FB00233B660020E4
:101D600021493A6EFFF78EFB00233B6600201F4996
:101D70003A6EFFF787FB1E48FEF79AFC1D48FEF7F8
:101D800097FC07F11C031846FFF7ECFEF865FA6DA7
:101D90007B6E9A4221D107F11C023B461046194640
:101DA000FFF706FF0346002B17D1D7E90023C7E949
:101DB000022300233B61104B1B78DBB2012B0CD1BB
:101DC0000E4BD3E90023CDE9002307F108030FCB25
:101DD000FFF70AFC084B00221A70D2E7888F002018
:101DE0000401304000013040200130401C013040EF
:101DF000B08F0020E88F0020C89B0020C09B0020EF
:101E000080B582B000AF7860786801F02BF80346A7
:101E100018460837BD4680BD80B582B000AF7860F7
:101E200039607868396800F0A7FF0346184608371C
:101E3000BD4680BD80B584B000AF0346FB71002372
:101E4000FB73FA7B07F1080310460F491A46FFF7A8
:101E500085FA07E0FA7B07F1080310460A491A469B
:101E6000FFF77CFABB6803F04003002BF2D0FB794C
:101E7000FA7B104605491A46FFF704FBFB79184622
:101E80001037BD4680BD00BF147002410070024192
:101E900080B582B000AF0023FB71FA793B46104653
:101EA0000F491A46FFF75AFA06E0FA793B46104600
:101EB0000B491A46FFF752FA3B6803F00103002B67
:101EC000F3D0FA793B46104606491A46FFF746FA20
:101ED0003B68BB71BB7918460837BD4680BD00BF63
:101EE000147002410070024180B584B000AF786088
:101EF00039603B68FB607B68BB600AE0BB681B78AD
:101F00001846FFF797FFBB680133BB60FB68013BD6
:101F1000FB60FB68002BF1DC002318461037BD4640
:101F200080BD00BF80B586B000AF786000237B61C4
:101F300013E03A697B68D31A78681946FFF7D4FF33
:101F400013480221FFF7D0FF3A697B68D31A7A69F8
:101F500013447B613B6901337B6078680A21FFF79A
:101F60005BFF38613B69002BE3D17868FFF748FFDE
:101F70000346FB607868F968FFF7B6FF7A69FB688B
:101F800013447B617B6918461837BD4680BD00BF8E
:101F90001490002080B400AFBD465DF8047B70470C
:101FA0000FB480B582B000AF07F114037B6007481F
:101FB00039697A6802F026FA0448FFF7B3FF083758
:101FC000BD46BDE8804004B0704700BFD09B0020F4
:101FD00080B584B000AFF860B9601346FB80FB8821
:101FE0000248F968BA68FFF7DBFFFEE718900020A7
:101FF00080B500AFFFF74CFF03461A46114B1A702D
:10200000104B1B780A2B09D00A2B02DC082B14D0AA
:1020100009E00D2B02D07F2B0FD004E00A480221EB
:10202000FFF762FF0AE0074B1B781F2B04D9054816
:102030000121FFF759FF01E000E000BF014B1B78D1
:10204000184680BDCC9B00201490002080B400AFC7
:10205000034B1B781846BD465DF8047B704700BFF4
:10206000CC9B002080B582B000AF0346FB71FB79AA
:102070000A2B08D00D2B06D0082B09D10A480321C2
:10208000FFF732FF0AE009480221FFF72DFF05E0C4
:10209000FB1D18460121FFF727FF00BFFB791846FB
:1020A0000837BD4680BD00BF40900020149000203E
:1020B00080B485B000AF78600023FB607B6803F4D8
:1020C0000053002B02D00223FB6011E07B6803F475
:1020D0008043002B02D00423FB6009E07B6803F4FB
:1020E0000043002B02D00823FB6001E00123FB60CA
:1020F000FB6818461437BD465DF8047B704700BF87
:10210000F0B593B000AFF860B9607A603B604FF013
:1021100000024FF00003C7E90C230023FB620023F9
:10212000BB620023BB610023FB617B6EFB63FB682A
:102130007B645AE27B6C1B78202B0FD07B6C1B7866
:10214000092B0BD07B6C1B780A2B07D07B6C1B7880
:102150000C2B03D07B6C1B780D2B00D13FE2BB68AE
:1021600003F00103002B2AD07B6C1B782D2B09D1A7
:10217000BB6843F08003BB607B6C01337B64FB690D
:102180000133FB617B6C1B78302B11D17B6C0133ED
:102190001B78782B04D07B6C01331B78582B0ED125
:1021A000BB6843F00803BB60A24B1B683B6006E0C2
:1021B000BB6843F00403BB609F4B1B683B60BB687C
:1021C00003F00203002B04D00123FB620A23BB624D
:1021D0003AE0BB6803F00403002B04D00123FB6248
:1021E0000A23BB6230E0BB6803F01003002B0ED063
:1021F0000123FB627B6C1B78302B05D17B6C013398
:102200007B64FB690133FB610823BB621CE0BB6894
:1022100003F00803002B17D00123FB627B6C1B78B3
:10222000302B0FD17B6C01331B78782B04D07B6C67
:1022300001331B78582B05D17B6C02337B64FB691F
:102240000233FB611023BB62FB6A002B00F0F680B7
:10225000B868FFF72DFFB8613B6EFF2B01D110234B
:102260003B6600237B62A0E07B6A7A6C13441B7898
:10227000202B00F09F807B6A7A6C13441B78092B1B
:1022800000F098807B6A7A6C13441B780A2B00F06C
:1022900091807B6A7A6C13441B780C2B00F08A8047
:1022A0007B6A7A6C13441B780D2B00F083807B686B
:1022B0003B643B683A6C13447B6102E03B6C013346
:1022C0003B643A6C7B699A4207D23B6C1A787B6A12
:1022D000796C0B441B789A42F0D13A6C7B699A4234
:1022E0005CD2BB6A1A464FEAE273796B02FB01F0DB
:1022F000396B03FB01F10144386BA0FB0223194445
:102300000B46C7E90C23C7E90C237B6A7A6C13449C
:102310001B78402B15D97B6A7A6C13441B78462BAB
:102320000FD87B6A7A6C13441B78373B1A464FEA06
:10233000E273D7E90C01121843EB0103C7E90C2340
:102340002BE07B6A7A6C13441B78602B15D97B6A6F
:102350007A6C13441B78662B0FD87B6A7A6C134413
:102360001B78573B1A464FEAE273D7E90C01121863
:1023700043EB0103C7E90C230FE07B6A7A6C13443B
:102380001B78303B1A464FEAE273D7E90C0112186A
:1023900043EB0103C7E90C2301E000E00AE0FB691D
:1023A0000133FB617B6A01337B627A6A3B6E9A423E
:1023B000FFF65AAF7B6A0F2B05DD4FF0FF324FF06F
:1023C000FF33C7E90C23BB6803F48073002B40F094
:1023D0000681BB6803F08003002B06D0D7E90C23ED
:1023E000524263EB4303C7E90C2300233B621BE02B
:1023F0003B6AFA6B02EB030E3B6AD900D7E90C2368
:10240000C1F12006A1F1200022FA01F403FA06F638
:10241000344323FA00F0044323FA01F5E3B28EF8C3
:1024200000303B6A01333B623A6ABB699A42DFDBA8
:10243000FB69E2E0B4920020B8920020BB6803F090
:102440004003002B0AD0BB6803F48073002B40F0DC
:10245000C6807B6C1A78FB6B1A70C0E0BB6803F017
:102460002003002B3DD000237B622FE07B6A7A6C37
:1024700013441B78202B17D07B6A7A6C13441B788B
:10248000092B11D07B6A7A6C13441B780A2B0BD072
:102490007B6A7A6C13441B780C2B05D07B6A7A6CB0
:1024A00013441B780D2B06D17B6AFA6B1344002270
:1024B0001A707B6AA1E07B6AFA6B13447A6A796CC2
:1024C0000A4412781A707B6A01337B627A6A3B6E27
:1024D0009A42CBDB7B6AFA6B134400221A707B6A48
:1024E0008BE0BB6803F40073002B39D000237B62C0
:1024F0002BE07B683B643B683A6C13447B6102E0F1
:102500003B6C01333B643A6C7B699A4207D23B6C6B
:102510001A787B6A796C0B441B789A42F0D13A6C3A
:102520007B699A4206D27B6AFA6B134400221A70C6
:102530007B6A62E07B6AFA6B13447A6A796C0A44BC
:1025400012781A707B6A01337B627A6A3B6E9A4218
:10255000CFDB7B6AFA6B134400221A707B6A4CE073
:10256000BB6803F48063002B39D000237B622BE02F
:102570007B683B643B683A6C13447B6102E03B6CD4
:1025800001333B643A6C7B699A4207D23B6C1A7800
:102590007B6A796C0B441B789A42F0D13A6C7B6968
:1025A0009A4206D37B6AFA6B134400221A707B6A44
:1025B00023E07B6AFA6B13447A6A796C0A441278D6
:1025C0001A707B6A01337B627A6A3B6E9A42CFDB78
:1025D0007B6AFA6B134400221A707B6A0DE0FB6B76
:1025E0000133FB637B6C01337B647B6C1B78002BBA
:1025F0007FF4A0ADFA6B7B6ED31A18464C37BD46FC
:10260000F0BD00BF0EB480B5D3B002AF3B1D186063
:102610000023C7F82C310023C7F82831FF23C7F85F
:1026200024310023C7F820310023C7F81C310023D0
:10263000C7F81431D7F84C31002B03D03B1D1B6871
:10264000002B01D1002319E23B1D1B68C7F8343170
:1026500007F5A87207F10C031A600123C7F81831B7
:10266000D7F84C31C7F8303100E24FF48043C7F857
:102670002031D7F830311B78202B13D0D7F83031E8
:102680001B78092B0ED0D7F830311B780A2B09D0D4
:10269000D7F830311B780C2B04D0D7F830311B78A9
:1026A0000D2B09D1D7F830310133C7F83031D7F8C5
:1026B00030311B78002BDCD1D7F830311B78252B3B
:1026C00040F0BF81D7F830310133C7F8303107F11E
:1026D0000C031B68191D07F10C0211601B68C7F879
:1026E0001031D7F830311B782A2B0AD1D7F8203196
:1026F00043F48073C7F82031D7F830310133C7F87D
:102700003031D7F830311B782F2B2AD9D7F8303118
:102710001B78392B25D80023C7F824311CE0D7F8C3
:1027200030311B782F2B1CD9D7F830311B78392B3F
:1027300017D8D7F8242113469B0013445B001A4690
:10274000D7F830311B781344303BC7F82431D7F821
:1027500030310133C7F83031D7F830311B78002BD6
:10276000DDD1D7F830311B785B2B6FD107F1100327
:10277000184600214FF4807200F0F8F907F11003B9
:10278000C7F838310023C7F81831D7F83031013392
:10279000C7F83031D7F830311B785E2B06D1D7F827
:1027A000203143F40073C7F8203105E0D7F8203119
:1027B00043F48063C7F820310EE0D7F830311B783E
:1027C000252B00D112E0D7F838315A1CC7F8382130
:1027D000D7F8302112781A70D7F830310133C7F8A2
:1027E0003031D7F830311B78002BE6D1D7F83821BB
:1027F00007F11003D31AC7F83C311CE007F11002AF
:10280000D7F83C3113441B785D2B0FD107F1100230
:10281000D7F83C31134400221A70D7F83C31C7F87E
:10282000283107F11003C7F82C3108E0D7F83C3104
:10283000013BC7F83C31D7F83C31002BDEDCD7F840
:102840003C31002B78DCD7F81C3117E1D7F8303158
:102850001B786E2B09D1D7F8203143F40063C7F8F9
:1028600020310023C7F8183166E0D7F830311B78E3
:10287000732B09D1D7F8203143F02003C7F820315A
:102880000023C7F8183157E0D7F830311B78632B95
:1028900009D1D7F8203143F04003C7F82031002395
:1028A000C7F8183148E0D7F830311B78682B22D1AF
:1028B000D7F8203123F48043C7F82031D7F83031DE
:1028C0000133C7F83031D7F830311B78682B0BD182
:1028D000D7F8203143F48053C7F82031D7F830318E
:1028E0000133C7F8303127E0D7F8203143F40053E3
:1028F000C7F8203120E0D7F830311B786C2B1BD182
:10290000D7F830310133C7F83031D7F830311B7880
:102910006C2B0BD1D7F8203143F40043C7F820319A
:10292000D7F830310133C7F8303105E0D7F820311E
:1029300043F48043C7F82031D7F81831002B4BD02F
:10294000524B1B68C7F82C31D7F830311B78752BE8
:102950000AD1D7F8203143F00303C7F820314C4B9C
:102960001B68C7F8283137E0D7F830311B78782B4F
:1029700004D0D7F830311B78582B0AD1D7F8203142
:1029800043F00803C7F82031424B1B68C7F82831D1
:1029900022E0D7F830311B786F2B0AD1D7F82031DD
:1029A00043F01003C7F820313B4B1B68C7F82831B0
:1029B00012E0D7F830311B78642B0AD1D7F82031D8
:1029C00043F00403C7F82031314B1B68C7F82831A6
:1029D00002E0D7F81C3151E0D7F8203103F400634E
:1029E000002B08D0D7F834213B1D1B68D21AD7F82A
:1029F00010311A6035E0D7F824310093D7F8103140
:102A00000193D7F83401D7F82011D7F82C21D7F843
:102A10002831FFF775FBC7F81401D7F81431002BE4
:102A200002DCD7F81C3129E0D7F81431D7F834216B
:102A30001344C7F83431D7F81C310133C7F81C31BF
:102A40000FE0D7F830311A78D7F834311B789A4232
:102A500002D0D7F81C3111E0D7F834310133C7F870
:102A60003431D7F830310133C7F83031D7F830314D
:102A70001B78002B7FF4F9ADD7F81C31184607F509
:102A8000A277BD46BDE8804003B07047B0920020F9
:102A9000B8920020B4920020BC92002080B487B08D
:102AA00000AFF860B9607A60FB687B61BB683B612E
:102AB000FB68002B04D1BB68002B01D1002327E069
:102AC000FB68002B02D0BB68002B02D14FF0FF3314
:102AD0001EE019E07B691A783B691B789A4202D2A2
:102AE0004FF0FF3314E07B691A783B691B789A42F8
:102AF00001D901230CE07B6901337B613B69013320
:102B00003B617B68013B7B607B68002BE2D100234B
:102B100018461C37BD465DF8047B704780B487B00B
:102B200000AFF860B9607A60FB687B61BB683B61AD
:102B30003B69002B02D07B69002B01D100230FE001
:102B40000AE07B695A1C7A613A69511C3961127832
:102B50001A707B68013B7B607B68002BF1D1FB68BE
:102B600018461C37BD465DF8047B704780B487B0BB
:102B700000AFF860B9607A60FB68002B01D10023D8
:102B80000FE0FB687B6108E07B695A1C7A61BA68D8
:102B9000D2B21A707B68013B7B607B68002BF3D15B
:102BA000FB6818461C37BD465DF8047B704700BFC4
:102BB00080B489B000AFF860B9607A60FB68FB61EF
:102BC000BB68BB617B687B61BA69FB699A4201D1D2
:102BD000FB692DE0BB69002B02D0FB69002B01D102
:102BE000002325E0BA69FB699A420FD90AE0FB6924
:102BF0005A1CFA61BA69511CB96112781A707B6962
:102C0000013B7B617B69002BF1D110E00CE07B691B
:102C1000013BFA6913447A69013AB9690A441278A6
:102C20001A707B69013B7B617B69002BEFD1FB68EC
:102C300018462437BD465DF8047B704780B487B0E2
:102C400000AFF860B9607A60FB68002B16D00023F3
:102C50007B610FE07B69FA6813441B781A46BB68F6
:102C6000DBB29A4203D17B69FA68134407E07B69BF
:102C700001337B617A697B689A42EBD30023184663
:102C80001C37BD465DF8047B704700BF80B483B03D
:102C900000AF0346FB80FB881B029AB2FB881B0A2D
:102CA0009BB29BB213439BB29BB218460C37BD46F6
:102CB0005DF8047B704700BF80B483B000AF7860DC
:102CC0007B684FEA33437B607B6823F47F031A0AF7
:102CD0007B6823F47F431B02134318460C37BD4621
:102CE0005DF8047B704700BF0CB4F0B59DB00E4694
:102CF0004FF4027E6FF0004522AC4FF6FF7702A939
:102D0000029654F8042B069623460194ADF814E07D
:102D100004950795ADF8167000F0D2F8029B0022DA
:102D20001A701DB0BDE8F04002B070470EB4F0B5A7
:102D30009CB0104B06464FF4027E21AC6FF000456C
:102D40004FF6FF77186854F8042B02A90296234621
:102D500006960194ADF814E004950795ADF8167049
:102D600000F0AEF8029B00221A701CB0BDE8F040E3
:102D700003B07047F0960020C9B270B4002940D06B
:102D8000840710D00378002B68D0994218BF431CE9
:102D900006D134E013F8012B002A5CD091422ED0EA
:102DA0009A071846F6D141EA0126046846EA064623
:102DB000A4F1013284EA060522EA0402A5F10133F6
:102DC00023EA0503134313F0803F0FD150F8045F4B
:102DD00086EA0503A5F10132A3F1013422EA0502D6
:102DE00024EA0303134313F0803FEFD0037823B9A1
:102DF00034E010F8013F002B30D09942F9D170BC7B
:102E0000704781070DD00378002BF8D0431C02E0F7
:102E10000278002AF3D013F0030F184603F10103E0
:102E2000F6D10268A2F1013323EA020313F0803FD6
:102E300008D150F8042FA2F1013323EA020313F062
:102E4000803FF6D00378002BD9D010F8013F002B3B
:102E5000FBD170BC7047104670BC7047184670BC00
:102E6000704700BF20F0030110F00300C0F1000024
:102E700051F8043B00F1040C4FEACC0C6FF0000257
:102E80001CBF22FA0CF213434FF0010C4CEA0C2C3D
:102E90004CEA0C4CA3EB0C0222EA030212EACC121D
:102EA00004BF51F8043B0430F4D0C2F1000102EA3F
:102EB0000102B2FA82F2C2F11F0200EBD2007047A7
:102EC0002DE9F04FC1B0894608920C93099002F0A9
:102ED000EDFA036818461693FFF7C4FFB9F80C30F3
:102EE00017901D0604D5D9F81030002B01F0808012
:102EF0000DF1C0080023C346139314931293159346
:102F000019930A9325932493CDF88C80089A13780B
:102F1000252B00F0A6800BB9A3E01BB112F8013FEE
:102F2000252BFAD108991446551A10D0249B259ABE
:102F30000133CBF800102A44CBF80450072B24931C
:102F4000259273DC0BF1080B0A9B2B440A93237820
:102F5000002B73D000234FF0FF3C611C66781A46AB
:102F600064468DF86F300B9306934B1CA6F120013D
:102F7000582900F2B283DFE811F01903B003B0035F
:102F80002003B003B003B003B003B003B0034002AA
:102F9000FB01B003E201FF01B00327032E032E0360
:102FA0002E032E032E032E032E032E032E03B00317
:102FB000B003B003B003B003B003B003B003B00379
:102FC000B0033D036503B0036503B003B003B00372
:102FD000B003FE02B003B0039302B003B003B0032A
:102FE000B003B003B002B003B003C602B003B00335
:102FF000B003B003B003B003B003B003B003B00339
:10300000EB0218026503650365034E021802B00364
:10301000B0033602B0036002E90199035902B0031C
:103020007202B0037600B003B00305030998494665
:1030300023AA03F003FC40B9C34685E7259B23B1CF
:103040000998494623AA03F0F9FBB9F80C3013F0AC
:10305000400F0A9B18BF4FF0FF33184641B0BDE840
:10306000F08F089C73E70893A446069B980640F1EE
:103070003E820C9F0123073727F0070202F1080167
:10308000D2E900450C910022CDF840C017468DF8DA
:103090006F20BCF1000F03DB069A22F0800206923B
:1030A000BCF1000F40F0AC8354EA050214BF0122CA
:1030B0000022002A40F0A483002B40F06084069A8E
:1030C000D20740F1FD840DF5807A30230AF8413DA6
:1030D000CAEB0804CDF83CA0A4456346B8BF23461C
:1030E00007930023119317B1079B01330793069BA6
:1030F00013F002030D9302D0079B02330793069B44
:1031000013F084030E9340F007830B9B079AC2EBE6
:10311000030ABAF1000F40F3FF82BAF1100F2599AC
:1031200040F3DD87BF4F10251896249A3E46274668
:10313000099C04E0AAF1100ABAF1100F1BDD01325C
:103140001031CBF800600BF1080B072A4BF8045C38
:1031500025912492EEDD2046494623AAC34603F07A
:103160006DFB00287FF471AFAAF1100A2599249A0B
:10317000BAF1100FE3DC3C463746189E01320AEBE9
:10318000010CCBF80070072ACDF894C02492CBF83C
:1031900004A000F3B6820BF1080B9DF86F7097B195
:1031A000249B01220CF1010C0DF16F011344CBF8AB
:1031B0000420CDF894C0072BCBF80010249300F323
:1031C000FB830BF1080B0D9B8BB1249B0CF1020CC4
:1031D0001CA902220133CDF894C0CBF80010072BB4
:1031E0002493CBF8042000F3DB830BF1080B0E9B38
:1031F000802B00F02183109B1F1B002F37DD102F29
:10320000249B40F3EC850D944FF0100A864D6246E6
:10321000099C02E0103F102F19DD01331032CBF86A
:1032200000500BF1080B072B4BF804AC25922493AC
:10323000F0DD2046494623AAC34603F0FFFA0028E2
:103240007FF403AF103F259A249B102FE5DC0D9CE3
:1032500094460133BC44CBF80050072BCDF894C002
:103260002493CBF8047000F38F830BF1080B069BBB
:10327000DF0500F15482249BA4440F9A0133CDF85A
:1032800094C0CBF80020072BCBF80440249300F324
:1032900060830BF1080B069B5A0740D50B9B079ADE
:1032A0009C1A002C3BDD102C249B40F36B871025CF
:1032B0005C4F6246099E02E0103C102C19DD013380
:1032C0001032CBF800700BF1080B072B4BF8045CA5
:1032D00025922493F0DD3046494623AAC34603F0E5
:1032E000ADFA00287FF4B1AE103C259A249B102C37
:1032F000E5DC94460133A444CBF80070072BCDF8ED
:1033000094C02493CBF8044009DD0998494623AAC8
:1033100003F094FA00287FF498AEDDF894C00A9B7D
:10332000079A0B998A42ACBF9B185B180A93BCF1B1
:10333000000F40F01A830023C3462493E6E51946A4
:1033400006981E7840F0040006900EE60893A44606
:10335000069B13F0200300F0AE800C9F002307377C
:1033600027F0070202F10801D2E900450C918AE634
:103370001E7819462B22F8E51E78591C2A2E01F0DA
:103380000680A6F130000B46002409283FF6EEAD7A
:1033900004EB840413F8016B00EB4404A6F1300045
:1033A0000928F5D944EAE474E0E50893A446069BAD
:1033B0008DF86F209C0640F129810C9F073727F07C
:1033C0000707D7E9002307F1080114461D460C91B1
:1033D000002A73F10003C0F22A819DF86F70012367
:1033E000CDF840C055E61E7806996C2E00F0578542
:1033F00041F0100106911946B7E50C9D2968084671
:103400000B912946002801F10401C0F24F850C916F
:1034100019461E78A9E5069941F040010691194622
:103420001E78A2E56C9000205C900020069941F087
:103430002001069119461E7897E50893069B8DF8A2
:103440006F209E0640F1A4840A990C9ACD17084675
:103450001368043229460C92C3E9000156E50C9A20
:10346000002508931368171D8DF86F500F93002BDC
:1034700000F07A86002C0F98C0F224862946224656
:1034800002F0D0FA002800F0DF860F9B0C97C41AD8
:1034900010959DF86F7024EAE4731195079322E666
:1034A0000893A446069B43F010030693069B13F073
:1034B00020037FF452AF069A12F0100240F05283BC
:1034C000069B13F0400300F04D830C991346002532
:1034D0000A460C8804320C92D5E50893A446069B54
:1034E00043F010030693069B98063FF5C2AD069B7A
:1034F000D90640F132840C9A134604321C68002528
:1035000001230C92BFE50893A446B74B8DF86F20BA
:103510001593069B9A063ED50C9F073727F00703A5
:1035200003F10802D3E900450C92069BDF0740F146
:10353000688254EA050300F06482069B30228DF80D
:10354000716043F002038DF87020069302239AE520
:103550000C990120089300230A6804311F468DF856
:103560006F3010930446119326AB07900C918DF8A1
:1035700098200F93BBE5069941F008010691194682
:103580001E78F2E40893A446984B8DF86F201593AB
:10359000069B9A06C0D4069BDB0640F1EC830C9A8E
:1035A00000251346146804330C93BEE71E781946B1
:1035B000002A7FF4DAAC2022D7E4069941F0010119
:1035C000069119461E78D0E4069941F080010691D3
:1035D00019461E78C9E4A6F13000002101EB8101F3
:1035E00013F8016B00EB4101A6F130000928F5D971
:1035F0000B91BBE40893A446069B8DF86F2043F023
:1036000010030693069B9C063FF5D7AE069BD80693
:1036100040F1D5830C9A13461C680433E517224603
:103620000C93002A2B4673F10003BFF6D6AE2D276C
:103630006442CDF840C04FF0010365EB45058DF8BD
:103640006F7026E50C9F089307378DF86F2027F0E1
:10365000070303F108020C921A6813925B6813982F
:1036600014931499079402F03BFF0128DDF81CC065
:1036700040F05583139800220023149904F0ECFEC7
:10368000002840F082859DF86F7003230698584A01
:1036900000211C460793574B20F080001091472EC5
:1036A000D8BF1A46069011910F921CE50C9D30224E
:1036B0000698A44629460893782340F00200043176
:1036C0002C681E468DF87130484B002506901593E6
:1036D00002230C918DF87020D5E408938DF86F20AB
:1036E000002E3FF4ABAC0023012226A98DF8986090
:1036F00007921F460F9114468DF86F301093119367
:10370000F5E40998494623AA03F098F800287FF4C5
:103710009CAC9DF86F70C346DDF894C03FE5652E04
:1037200040F3C9801398002200231499CDF834C0C7
:1037300004F088FEDDF834C0002800F06581249B89
:1037400001220CF1010C2C491344CBF80420CDF8D4
:1037500094C0072BCBF80010249300F343830BF1A4
:10376000080B1D9B129A934203DB069BDE077FF535
:1037700092AD249B17990133169A8C44CBF8041010
:10378000072BCBF80020CDF894C0249300F31D84C0
:103790000BF1080B129B5C1E002C7FF77CAD102CEC
:1037A000249B40F3BC851026144D6246099F03E01C
:1037B000103C102C40F3C88101331032CBF800507C
:1037C0000BF1080B072B4BF8046C25922493EFDDCB
:1037D0003846494623AAC34603F030F800287FF450
:1037E00034AC259A249BE3E78C900020A090002025
:1037F000809000207C900020BC9000205C900020F5
:10380000012B00F04D81022B40F0E380C246159859
:10381000230904F00F012A0943EA057315461C46E3
:10382000435C0AF8013D54EA0503F1D15346CDF853
:103830003CA0C3EB08044FE40B9B079A9F1A002F90
:103840007FF7D9AC102F249B40F3F9840D944FF0EF
:10385000100AC84D6246099C02E0103F102F19DD86
:1038600001331032CBF800500BF1080B072B4BF84B
:1038700004AC25922493F0DD2046494623AAC34692
:1038800002F0DCFF00287FF4E0AB103F259A249B78
:10389000102FE5DC0D9C94460133BC44CBF800505E
:1038A000072BCDF894C02493CBF8047000F3FC816F
:1038B0000BF1080B9FE4129B0CF10106249C012BD9
:1038C00040F3C98101230F9A25961C44CBF80020B0
:1038D000CBF80430072C249400F3DA810BF1080BA9
:1038E000179A0134169B1644072CCBF80030259606
:1038F0002494CBF8042000F3BF810BF1080B0023C4
:1039000013980022149904F09DFD129B002840F0AA
:10391000DC80013B01340F9A1E44072C02F10102A6
:1039200024942596CBF80020CBF8043000F30081D6
:103930000BF1080B199A01341FAB06EB020C072C94
:10394000CBF80420CDF894C02494CBF800307FF756
:10395000A0AC0998494623AA02F070FF00287FF422
:1039600074ABDDF894C0C34695E40998494623AA90
:1039700002F064FF00283FF4DEACFFF766BB14469C
:10398000CDF83C80FFF7A8BB0998494623AA02F06E
:1039900055FF00287FF459ABDDF894C0C34666E4B8
:1039A0000998494623AA02F049FF00287FF44DAB4D
:1039B000DDF894C0C3461AE40998494623AA02F0E8
:1039C0003DFF00287FF441ABDDF894C0C346FFF70C
:1039D000FABB4146E20804F00703E80842EA4572F0
:1039E00030330546144601F8013D54EA0502F1D191
:1039F000069A0F91D00700F16481C1EB0804FFF72C
:103A00006BBB0223FFF73FBB1D9C002C40F3F681EC
:103A1000129A119913468A42A8BF0B460F991C4669
:103A20008F18002C0EDD249BA444CBF8001001332A
:103A3000CDF894C0CBF80440072B249300F35383B4
:103A40000BF1080B119B002CA8BF1B1B002B1C4665
:103A500040F3A180102C249B40F36C841026454D2C
:103A60006246DDF824A003E0103C102C40F3848073
:103A700001331032CBF800500BF1080B072B4BF839
:103A8000046C25922493EFDD5046494623AAC34691
:103A900002F0D4FE00287FF4D8AA259A249BE3E7FD
:103AA000002D08BF0A2C80F01A810DF5807A303481
:103AB0000AF8414DCAEB0804CDF83CA0FFF70CBB57
:103AC0001C46CDF83C80FFF707BB5F1E002F7FF739
:103AD00031AF102F274DC8BF4FF0100A03DC1CE098
:103AE000103F102F19DD01341036CBF800500BF1C8
:103AF000080B072C4BF804AC25962494F0DD0998AC
:103B0000494623AAC34602F099FE00287FF49DAAE5
:103B1000103F259E249C102FE5DC01343E44CBF859
:103B20000050072C25962494CBF804707FF700AF43
:103B30000998494623AA02F081FE00287FF485AA4D
:103B4000259EC346249CF5E694460133A444CBF855
:103B50000050072BCDF894C02493CBF804407FF796
:103B600098ABF6E60C9900250A460C6804320C92D4
:103B7000FFF789BA5C90002094460133A444CBF847
:103B80000050072BCDF894C02493CBF8044000F3E9
:103B9000DF820BF1080B0F9A11991D9B0A44164600
:103BA000129A934245DB069AD00742D4129ABC1B64
:103BB000D31A9C42A8BF1C46002C25460EDD249A31
:103BC000A444CBF800600132CDF894C0CBF8044097
:103BD000072A249200F3A0820BF1080B002DACBF42
:103BE0005C1B1C46002C7FF756AB102C249B40F32B
:103BF00096831026B14D6246099F02E0103C102CBE
:103C0000A2DD01331032CBF800500BF1080B072B6B
:103C10004BF8046C25922493F0DD3846494623AADC
:103C2000C34602F00BFE00287FF40FAA259A249BBE
:103C3000E4E7249A1798013216998444CBF80400DB
:103C4000072ACBF80010CDF894C0249200F37382B9
:103C50000BF1080BAAE7069BD9073FF533AE01230A
:103C60000F9A25961C44CBF80020CBF80430072C83
:103C700024947FF75DAE5BE70998494623AA02F0DA
:103C8000DDFD00287FF4E1A9259EC346249C36E68D
:103C90000998494623AA02F0D1FD00287FF4D5A94E
:103CA000259EC346249C1BE60998494623AA02F098
:103CB000C5FD00287FF4C9A9DDF894C0C346FFF70D
:103CC0009ABA302B0F9B3FF4B4AD013B1A460F93C9
:103CD0003023C2EB080401F8013CFFF7FDB9C246EE
:103CE000CDF81CC0204629460A22002304F004FC1B
:103CF00002F1300E2046294600230A220AF801ED7F
:103D000004F0FAFB04460D4654EA0503EAD1DDF857
:103D10001CC0CAEB0804CDF83CA0FFF7DDB913982E
:103D20001499CDF81CC002F0DBFBDDF81CC00028A4
:103D300040F0CC80069C0321614A624B24F0800451
:103D40001090472ED8BF1A46069407910C46119042
:103D50000F929DF86F70FFF7C6B9069B0C9A13F08F
:103D6000400F13463FF4C9AB1488043200250123E9
:103D70000C92FFF788B9069B0C9A13F0400F13467C
:103D800000F030810433148800250C93FFF7CDBB7D
:103D9000069BDD060BD4069B5C0608D50C9A1368BF
:103DA00004320C92BDF828201A80FFF7AFB80C9AA5
:103DB000136804320C920A9A1A60FFF7A7B8069BA0
:103DC0000C9A13F0400F13463FF426ACB2F90040B2
:103DD0000433E5170C9322462B46FFF7F9BA374D0B
:103DE000FFF737BA0998494623AA02F027FD0028B1
:103DF0007FF42BA9DDF894C0C346B2E4249B0122D2
:103E00000CF1010C30491344CBF80420CDF894C0D8
:103E1000072BCBF80010249300F3FA800BF1080B6A
:103E20002CB9129B1BB9069BDD077FF534AA249B96
:103E30001799013316980CEB0102CBF80410072BED
:103E4000CBF800002592249300F34C820BF1080B71
:103E50006442002C40F32681102C184D40F34F8112
:103E60001026099F03E0103C102C40F348810133D9
:103E70001032CBF800500BF1080B072B4BF8046CF9
:103E800025922493EFDD3846494623AAC34602F023
:103E9000D5FC00287FF4D9A8259A249BE3E741F0BC
:103EA00020015E780691591CFFF75FB80B980C91C2
:103EB000194640420B90FFF743BA00BF5C900020C8
:103EC0008890002084900020BC900020BCF1FF3F2F
:103ED00026F0200A00F0A980BAF1470F40F0A78031
:103EE000BCF1000F40F0A380069B4FF0470A4FF053
:103EF000010C43F480730E93149B002BC0F2FF81DE
:103F00001D46139F00230D9302201DA9CDF804C068
:103F10003A4600901EA8029121A903902B460998C9
:103F20000491CDF81CC000F01BFBBAF1470F0F90B5
:103F3000DDF81CC040F04282069BDB0740F1F381B4
:103F40000F9B03EB0C043846002200232946CDF8D2
:103F50001CC004F077FADDF81CC0002840F0728124
:103F6000219B9C4206D930215A1C21921970219B19
:103F70009C42F9D80F9ABAF1470FA3EB02031293B0
:103F80001D9B40F013819C45C0F26881D91CC0F292
:103F9000658167261193129B119A934200F3B681B3
:103FA000069BDF0700F1C181144622EAE27C0D9BEB
:103FB000002B40F0F0800E9BCDF81CC006930D9BAB
:103FC0009DF86F701093FFF78EB80998494623AAA1
:103FD00002F034FC00287FF438A8DDF894C0C34612
:103FE000FFF7D8BB0433146800250C93FFF79DBA84
:103FF0000998402101F06AFAC9F80000C9F81000D8
:10400000002800F0D4814023C9F81430FEF770BFB7
:104010000998494623AA02F011FC00287FF415A84C
:104020001D9CC346DDF894C0FAE64FF0060C069BD3
:1040300043F480730E93149B002BC0F260811D46E5
:10404000139F00230D93BAF1460F00F0C480BAF11C
:10405000450F7FF459AF0CF10104CDF81CC00DF1F0
:10406000740E0DF1840C1EA80221CDF810C03A4642
:1040700003902B4601940091CDF808E0099800F0D8
:104080006FFADDF81CC00F900F9B1C445BE709988A
:10409000494623AA02F0D2FB00287EF4D6AF259A27
:1040A000C346249B1298013302EB000C072B0F9A96
:1040B000CDF894C0CBF800202493CBF804007FF710
:1040C000E8A846E41095FEF7CDFE20EAE0730C97D1
:1040D0000446119507939DF86F70FFF704B8249A72
:1040E000B74FFFF74BB80998494623AA02F0A6FB41
:1040F00000287EF4AAAFDDF894C0C346A2E40133E1
:104100002244CBF80050072B25922493CBF804408F
:10411000BDDC0BF1080BC5E70998494623AA02F05C
:104120008DFB00287EF491AF1D9BC346129ADDF8EB
:1041300094C0D31A52E50998494623AA02F07EFB9F
:1041400000287EF482AF1D9BC346DDF894C02DE5A8
:104150000998494623AA02F071FB00287EF475AF46
:10416000DDF894C0C34616E5062C0C9710931F4645
:1041700028BF0624119724EAE4730793914B0F9309
:10418000FEF7B1BF8E4FFFF7B5B82D231F468DF850
:104190006F30FFF77ABA0E9B2D27CDF81CC006931F
:1041A00000238DF86F701093FEF79EBF652E56DDCD
:1041B000662E11937FF4EFAE002B40F3D680BCF156
:1041C000000F40F0C180069BDA0700F1BD80119C12
:1041D00024EAE47CEBE603201DA93A46CDF804C0AE
:1041E00000901EA8029121A92B46039004910998E2
:1041F000CDF81CC000F0B4F9DDF81CC0024603780D
:1042000062440F90302B079240F08B80384600229A
:1042100000232946CDF840C04FF0010404F012F904
:10422000DDF840C008B14FF0000414F0FF0F78D063
:10423000CCF101041D94079B23441C4683E6624D88
:10424000FFF72ABB234695E624EAE4730C97109007
:104250009DF86F7007931190FEF745BF023E013B3A
:104260008DF87C60002B1D9375DB2B228DF87D2053
:10427000092B61DD0DF18B000146544A82FB0324BA
:10428000DA17C2EBA40404EB8402092CA3EB42026C
:10429000234602F1300201F8012DEEDC30330A46EC
:1042A000DBB202F8013D90427ED90A460DF17E0450
:1042B00001E012F8013B824204F8013BF9D123AB43
:1042C0000DF17E025B1A13441FAA9B1A129A012A4F
:1042D000199302EB030443DD01340023119324EA14
:1042E000E47C64E60998494623AA02F0A7FA00286C
:1042F0007EF4ABAE1D9CC346259A249BA8E5149B77
:10430000139F03F100452D230D939CE6119B002B79
:1043100035DD0124129B1C4424EAE47C47E62A4D47
:1043200013E41D9C87E7219B24E6119B5C1C24EA77
:10433000E47C3CE6244D20E4303330228DF87F309D
:1043400020AB8DF87E20BFE70CF10104119B1C44CB
:1043500024EAE47C2BE62D225B428DF87D2087E762
:10436000069B13F00103B9D0B6E7BCF1000F09D1E9
:10437000069BDB0706D44FF0010C644617E6C3F139
:104380000204C7E70CF1020424EAE47C0FE60C9D6A
:104390005E7828462C680430002C0C90BEF6E5AD03
:1043A0004FF0FF34FEF7E1BD0DF17E038CE70C23E7
:1043B000099A4FF0FF301360FEF750BE644663E683
:1043C0006C900020B49000205C90002067666666C8
:1043D000F0B59BB00D466FF000444FF402774FF6F6
:1043E000FF76694600950495ADF80C70029405942B
:1043F000ADF80E60FEF764FD009B00221A701BB042
:10440000F0BD00BF30B40D46034C134601462A46AA
:10441000206830BCFFF7DCBFF09600202DE9F04F9C
:10442000036983B00F699F4200F39380013F01F15C
:10443000140600F1140ABB0056F827201D4600930D
:1044400001325AF827300AEB050406EB0509B3FBE5
:10445000F2F80194B8F1000F40D00025B446D646DA
:104460002B465CF804BBDEF800201FFA8BF4E14514
:104470004FEA1B4B04FB08550BFB08FBACB20BEBE4
:104480001545A3EB04031FFA85FB13FA82F44FEAE8
:104490001545CBEB12421FFA84FB02EB24434BEA97
:1044A00003424FEA23434EF8042BDAD2009B5AF81A
:1044B00003309BB9019C231F9A450ED254F8043C4B
:1044C0005BB9A4F1080301E0126832B99A451A46B3
:1044D00007F1FF37A3F10403F6D30761044601F0A7
:1044E000EFFD002831DB08F101085546002056F8A1
:1044F000041B2A688BB2B1454FEA1141A0EB0303BC
:10450000C1EB124113FA82F301EB23429BB24FEA53
:10451000224043EA024345F8043BE8D25AF82720F8
:104520000AEB87038AB91A1F92450DD253F8042C5F
:1045300052B9083B01E0126832B99A451A4607F1B0
:10454000FF37A3F10403F6D32761404603B0BDE86B
:10455000F08F002003B0BDE8F08F00BF0000000026
:104560002DE9F04F9B4699B0036C04469246259D79
:104570004BB1466C01221946B2405E609A6001F070
:104580005FFB00232364BBF1000FD94633DB00231C
:104590002B60994B1A4609EA0303934214D0002278
:1045A00000235046594603F04DFF804648B301238F
:1045B000249A1360269B002B00F0CB808F48186054
:1045C000013819B0BDE8F08F42F20F73249A1360DE
:1045D000BAF1000F00F0A6808948269B002BF0D08E
:1045E000C378002B00F0B78000F10803269A13600F
:1045F00019B0BDE8F08F01232BF000492B60CB46AA
:10460000C7E717AD16A92046524600955B460191B3
:1046100001F074FE06905FEA195540F08C80DDF8D9
:1046200058806FF48263179D45449D42C0F2CC814F
:104630001F3305F212425B1B2AFA02F009FA03F952
:1046400049EA000003F020FC013D0123A1F1F871CB
:10465000119300226B4B03F0D9FA61A3D3E9002335
:1046600003F088FC60A3D3E9002303F0D1FA0646E7
:104670000F46284603F018FC5DA3D3E9002303F09E
:1046800079FC02460B463046394603F0C1FA06462D
:104690000F4603F009FF00220290394630460023FE
:1046A00003F0DAFE002840F07181029B162B00F225
:1046B00091800298524654495B4601EBC001D1E912
:1046C000000103F0E7FE002800F07C81029B013B23
:1046D000029300230D93C5EB08056B1E039300F1B5
:1046E0006C8100230793029B002BC0F25D81039A2B
:1046F0000C9311461944002303910A93229B092B22
:104700002BD8052B40F37E86043B00252293229B69
:10471000023B032B00F27986DFE813F09B0289024B
:1047200080018D06C9F31300354B384A002814BFA9
:104730001846104651E7CBF31303CDF8448050469A
:10474000A5F2FF3543F07F51DDF8588041F4401168
:104750007FE72F4835E7C31C48E74FF0FF330021C0
:1047600020461D4610930123616423910B9301F0B1
:104770003FFA239B0590229304952064029A179B8D
:104780000E2A49DC002B47DB1F4B029A03EBC203C6
:10479000D3E90089049B002B00F35E82239B002B4E
:1047A00080F25A82049B002B40F0BF850022194BF7
:1047B0004046494603F0DEFB52465B4603F060FE8E
:1047C000049F0897002800F0BD80239B059DDB43D4
:1047D0000293BEE001230D937DE700BFAFF300809D
:1047E00061436F63A787D23FB3C8608B288AC63FF7
:1047F000FB799F501344D33F0000F07FBD90002011
:10480000CC9000200000F83FE8900020C0900020ED
:10481000BC900020000014400B9A002A40F0E18078
:104820000B9B0A9E079D0893039900290B460ADDFE
:10483000002D08DDA942079AA8BF2B46D21AED1A0F
:10484000CB1A079203930A9B002B1BDD0B9B002BBB
:1048500000F0CE84002E11DD08993246204601F08A
:1048600085FB069F014608903A46204601F0DCFA97
:10487000034639462046069301F0E2F90A9B9A1B4B
:1048800040F0FF842046012101F0C4FA0C9B07464A
:10489000002B40F3828201461A46204601F066FB57
:1048A000229B0746012B40F3F3844FF000083B693D
:1048B00007EB8303186901F059FAC0F12000039B4C
:1048C000184410F01F0000F0A082C0F12003042B58
:1048D00040F39285C0F11C00079B054403440793F5
:1048E000039B03440393079B002B05DD06991A469F
:1048F000204601F08BFB0690039B002B05DD39461B
:104900001A46204601F082FB07460D9B002B40F023
:104910008B83229B022B40F37A82049B002B00F3B3
:104920007682049B002B7FF450AF39460522204647
:1049300001F090F907460698394601F0C1FB0028BE
:104940007FF743AF029A312301320292059A551C38
:1049500013703946204601F073F9089B1BB1089982
:10496000204601F06DF92046069901F069F9002210
:10497000029B2A700133249A1360269B002B00F0BF
:10498000A38205981D6019B0BDE8F08F029803F06E
:104990008BFA32463B4603F055FD00287FF485AE86
:1049A000029B013B029380E6079A029BD21A5B426C
:1049B0000A93002307920C93A0E65B42079300231F
:1049C000039390E60D9086E6BD4B5B1B0AFA03F05D
:1049D00038E600214FF0FF322391012104920B9120
:1049E0001092229A012A40F36084049B5E1E0A9B67
:1049F000B342C0F205849E1B049B002BC0F261846D
:104A0000079D049B079A204601211A440792039AA6
:104A10001A44039201F0FEF9089005E701230B9375
:104A2000239B002B40F3DF830E2B8CBF002505F06A
:104A300001051E46109304930021172E616409D9C5
:104A4000012204235B001146013203F11400B0423D
:104A5000F8D96164204601F0CBF805902064002D60
:104A60003FF48CAE02980028CDE90EAB40F33382C0
:104A7000944A00F00F03051102EBC303EA06D3E9E1
:104A8000006740F11C82904B5046594605F00F05D7
:104A90004FF00308D3E9082303F096FB82468B46C8
:104AA0008DB1DFF82492EB073046394607D508F17F
:104AB0000108D9E9002303F05DFA06460F466D10A0
:104AC00009F10809EFD15046594632463B4603F0FA
:104AD0007BFBCDE908010D9B43B100227B4BDDE957
:104AE000080103F0B9FC002840F09383404603F02E
:104AF000DBF9DDE9082303F03DFA754B002203F0F2
:104B000087F8049B0646A1F15077002B00F06181E5
:104B1000029BDDF810C014930B9B002B00F00B825E
:104B2000684B0020059A03EBCC036A49551CCDF86D
:104B300048C053E9022303F047FB32463B4603F0EB
:104B400065F882468B46DDE908894946404603F010
:104B5000ABFC064603F0A8F9024630360B46404649
:104B6000494603F053F8059F80468946F6B2504601
:104B7000594642464B463E7003F08CFC002840F0FC
:104B8000438242464B460020504903F03FF802461C
:104B90000B465046594603F07DFC002840F0EB8060
:104BA000DDF848C0BCF1010F40F39281059F1294DB
:104BB000674408970EE00020444903F027F8524666
:104BC0005B4603F049FC002840F0A183089B9D420E
:104BD00000F07D815046594600223F4B03F0CAF950
:104BE00000223D4B82468B464046494603F0C2F9BF
:104BF00006460F4603F058FC044603F055F90246FA
:104C00000B46303430463946E6B202F0FFFF8046AC
:104C1000894652465B4605F8016B03F01DFC42468F
:104C20004B460028C7D0149B129C02939BE600239E
:104C30000B93239B029A134410930133002B04938C
:104C400040F3C982049E0E2E8CBF002505F001059D
:104C5000F2E600230B93E3E6059942464B465046A5
:104C60004D1C594603F0B0FA564603F01DFC82462F
:104C700003F01AF942464B4603F07CF902460B4614
:104C80003046594602F0C2FF0AF13003059A064643
:104C90000F461370049B012B4DD000220E4B03F0E6
:104CA00069F90022002306460F4603F0CBFB0028DB
:104CB0007FF459AE0394DDF814B0049C19E000BFF2
:104CC000EEFBFFFFE8900020C09100200000F03FC5
:104CD00000001C400000E03F0000244003F04AF9BF
:104CE0000022002306460F4603F0ACFB002840F0EC
:104CF000E58242464B463046394603F065FA03F0FA
:104D0000D3FB824603F0D0F842464B4603F032F91B
:104D100002460B463046394602F078FF0AF1300E63
:104D200006460F4605F801EBCBEB050E0022B84B0B
:104D30007445D3D1039C32463B463046394602F097
:104D400067FF06460F464046494632463B4603F05B
:104D500083FB60B94046494632463B4603F072FB4E
:104D600000283FF400AE1AF0010F3FF4FCAD029BA7
:104D7000149315F8016C6A1E059B04E09A4200F03A
:104D8000778212F8016D392E02F10105F6D0731CFD
:104D90001499DBB202911370E5E5229B012B40F3DD
:104DA00061814FF000080C9B002B7FF480AD012047
:104DB00085E5404603F078F802460B46DDE9080138
:104DC00003F0D8F80022934B02F022FF0646A1F12F
:104DD00050770022904BDDE9080102F017FF3246C0
:104DE0003B468046894603F055FB0546002840F0C7
:104DF0009F8032464046494607F1004303F02CFBB2
:104E0000002865D02F460895DFE41C2064E50B9B45
:104E1000002B40F04F81DDF814A0069E5546DDF8CA
:104E2000108002E000F016FF064639463046FFF7D4
:104E3000F5FA00F130093146204605F8019BCAEB2E
:104E4000050E0A220023C645ECDB059B4FF0000A45
:104E5000049A0696012AACBF9B1801331D46069999
:104E60000122204601F0D2F83946069001F028F9D7
:104E7000002840F34E8215F8012C6B1E059904E0C2
:104E80008B4200F00B8213F8012D392A03F1010542
:104E9000F6D001321A703946204600F0D1FE089B48
:104EA000002B3FF460AD9A453FF459ADBAF1000FC5
:104EB0003FF455AD5146204600F0C2FE4FE5DDE916
:104EC0000EAB4FF00208EBE50598FFF77ABB129C9A
:104ED000DDE90EAB52E4029B5D42002D00F0C18182
:104EE00005F00F024D4B03EBC203DDE90E01D3E9E0
:104EF000002303F03FF82D11CDE9080100F0758281
:104F0000474E4FF0020802460B46EF07104619467F
:104F100007D508F10108D6E9002303F02BF8024673
:104F20000B466D1006F10806EFD1CDE90823D2E556
:104F30000027089706E50CF1FF3B384932463B460F
:104F400001EBCB01CDF854C0059FD1E9000103F07E
:104F500011F87D1CDDE90889CDE91201494640467A
:104F600003F0A2FA064602F09FFF02460B464046B7
:104F70004946303602F04AFEDDF854C08046894684
:104F8000BCF1010F3E7020D0059B4046AA46A846C2
:104F900003EB0C07B94600221D4B02F0EBFF0F4656
:104FA000064603F081FA054602F07EFF02460B46F4
:104FB00030353046394602F029FE0AF8015BCA4511
:104FC000E9D14546894680465D440022154BDDE91E
:104FD000120102F01DFE42464B4603F03DFA002846
:104FE0007FF4C7AE00200F49DDE9122302F00EFE68
:104FF00042464B4603F04EFA08B969E7154615F8E4
:10500000013C6A1E302BF9D0149B0293ABE400BF25
:105010000000244000001C4000001440E8900020E4
:10502000C09100200000E03F0698394601F048F8A2
:105030000028BFF66EAC029E002306992046013E72
:105040000A22029600F006FE0B9B06901BBB229BD9
:10505000022B40F3CE81109B002B00F3CA81109BE2
:1050600004935EE4BAF1000F7FF49BAECBF313031D
:10507000002B7FF496AE2BF00046360D3605002E41
:1050800000F08A81079B4FF0010801330793039BCF
:105090000133039387E60023089920460A2200F093
:1050A000D9FD229B0890022B02DD109B002BD6DD40
:1050B000109B0493002D05DD08992A46204600F038
:1050C000A5FF0890B8F1000F40F03381089E0AF068
:1050D0000101049B229A013B0B910599B2FA82F2DD
:1050E0000A97CB188846DDF820B00C935309069F29
:1050F00003930A9D38462946FFF790F959468146A1
:10510000384600F0DDFF294632468246204600F050
:10511000FBFFC268054609F1300C0792002A50D106
:1051200029463846CDF818C000F0CAFF2946049039
:10513000204600F085FD039A049BDDF818C032B1CB
:105140002BB90B9B079A002B00F028811346BAF16C
:10515000000FC0F2BC80039A32B1BAF1000F03D144
:105160000B9A002A00F0B380002B00F3FE800C9B0A
:1051700008F1010988F800C098454D4600F0068105
:1051800039460A220023204600F064FDB345074655
:10519000594620464FF00A024FF000030BD000F0B2
:1051A00059FD314683460A222046002300F052FD75
:1051B000C84606469DE700F04DFDC84683460646B4
:1051C00097E701462046CDF810C000F039FD0123D5
:1051D000DDF810C0BBE70E2B8CBF0023012300219C
:1051E0001D40616436E40123239310930493F6E792
:1051F000069920460A9A00F0B9FE0690FFF742BBD6
:105200000A9B0C9AF31A0A9600261A440C92FFF78E
:10521000F3BB049B002B3FF4CCAD109D002D7FF71A
:1052200057AE0022864BDDE9080102F0A3FE029B87
:1052300006460F46013B08F10100CDE908671493CB
:1052400002F032FE02460B463046394602F092FE2C
:1052500000227C4B02F0DCFCAC460646A1F1507704
:105260005AE4DDE90E234FF00208CDE9082332E4C9
:10527000149B302101331170029331231370FFF717
:1052800072BB0699204600F071FE0690FFF7FABA4D
:10529000BAF1000F3FF4EAAEFFF707BB029A3123E1
:1052A00001320292059A1370F5E5119A002A55D041
:1052B00003F233430A9E079DFFF7A4BB039CFFF74D
:1052C00052BB079B049A9D1A0023FFF79BBB002B40
:1052D0000697E146CDF820B00A9F65460FDD069996
:1052E0000122204600F092FE3946069000F0E8FECA
:1052F000002875DDB9F1390F66D009F10105DDF837
:1053000020A088F8005008F101050896C3E5129C1A
:1053100031E504D119F0010F01D0ACE5154615F8BF
:10532000013C6A1E302BF9D0B5E500270897FFF73E
:105330004CBA089E2046716800F05AFC3369054655
:1053400006F10C019A1C0C30920000F0B3FB2046D1
:105350002946012200F05AFE0646B8E6169B0A9E30
:10536000079DC3F13603FFF74DBBBCF1390F06971C
:10537000CDF820B00A9F30D00CF10109DDF820A053
:1053800008F10105089688F8009084E50697E14643
:10539000DA460A9F089662E5B04604E5BCF1390F8B
:1053A0000697CDF820B05546CB460A9FE1460BD074
:1053B000002D01DD0BF13109DDF820A008F1010518
:1053C00088F80090089666E5DDF820A00896392256
:1053D00008F1010588F800204FE5DA460896F6E75F
:1053E0008DD119F0010F8AD084E74FF00208FFF742
:1053F00072BB109B04930EE53FF475AAC0F13C000C
:10540000FFF76ABA0125FFF782B9002520466564D7
:10541000294600F0EDFB029A05900E2A179B2064A6
:105420003FF7D7AAAB42FFF6D4AA4FF0FF3323953C
:105430000493FFF7A9B901230B93FFF7FABB00BF51
:105440000000244000001C40C2B110460C4910B5B9
:10545000144601F089F808B90A4810BD20460949E8
:1054600001F082F80028F7D02046074901F07CF8C7
:10547000044B00280CBF1846002010BD014870479F
:10548000D8900020D09000209C90002000487047C9
:105490004C970020014B1868704700BF6C970020A4
:1054A00000487047F496002000207047004870477D
:1054B00014970020024B0A4601461868FFF7C4BF44
:1054C000F096002000487047149700202DE9F04F17
:1054D00001F10B0483B00546162C27D934F00704DC
:1054E0002AD4A14228D800F07FFBB4F5FC7F2BD250
:1054F0004FEAD40CC04E06EBCC02D368934200F0C6
:1055000071815A6803F10808D968284622F003021D
:105510009C681344E1608C605A6842F001025A6052
:1055200000F064FB404603B0BDE8F08F102903D8BB
:1055300000F05AFB1024DBE74FF000080C23404634
:105540002B6003B0BDE8F08F5FEA542C00F0898037
:10555000BCF1040F00F2C4804FEA941C0CF1380C2B
:105560004FEA4C00A44E06EB8000C368984205D178
:105570000CE0002979DADB68984207D05A6822F0FB
:105580000302111B0F29F4DD0CF1FF3C0CF1010C9F
:10559000994F336907F1080E734500F019815A6875
:1055A00022F00302111B0F2900F3CA800029C7F85B
:1055B00014E0C7F810E06ADAB2F5007F80F09F804F
:1055C000D208012079684FEAA20807EBC20200FA6C
:1055D00008F0D2F808800843DA60C3F808807860E1
:1055E0009360C8F80C304FEAAC0301219940814226
:1055F0005BD8084206D12CF0030C49000CF1040CD6
:105600000842FAD006EBCC08E1464046C768B842EB
:1056100007D1DFE0002A80F2F780FF68B84200F08F
:10562000D9807B6823F003031A1B0F2AF2DDB846EA
:10563000FB6844F0010942F0010C58F8081F3C4493
:10564000C7F804902846CB60996074613461C4F84F
:105650000CE0C4F808E0C4F804C0A25000F0C6FA98
:1056600060E77E204FF03F0C7CE71A44DC689E68C0
:1056700003F1080851682846F46041F00103A66070
:10568000536000F0B3FA404603B0BDE8F08F1A440F
:1056900003F108082846536843F00103536000F003
:1056A000A5FA404603B0BDE8F08FB7687A6822F0EB
:1056B0000308C4EB08020F2A56DDA04554D344F07A
:1056C000010342F001023C4407F108087B602846D0
:1056D000B460626000F08AFA404603B0BDE8F08F23
:1056E000BCF1140F40F29F80BCF1540F00F22781EF
:1056F0004FEA143C0CF16E0C4FEA4C0032E7510AB1
:10570000042940F29580142900F2428101F15B07DF
:10571000780006EB8000DFF8E0908168814200F0BD
:105720001B814F6827F00307BA4202D2896888427A
:10573000F7D1CA687068DA6099609360CB6052E70D
:1057400044F0010641F001021C4428465E6003F16A
:1057500008087C613C61C4F80CE0C4F808E06260B1
:10576000615000F043FADDE6244A254B11681B68BE
:105770000131234400F0098141F20F01DFF88490E8
:10578000194401EA090928464946019200F0CAFE77
:10579000B0F1FF3F8246019A00F00181BB1B07EB8D
:1057A0000801154818BF0123514567D9002B65D062
:1057B00087687B6823F003031A1B0F2A02DD9C42D3
:1057C0007FF67DAF28464FF0000800F00FFAA9E6FB
:1057D000786808E709F10109083019F0030F7FF430
:1057E00015AF2FE003F108025B699A4208BF0CF184
:1057F000020C3FF4CDAE84E6709700207C9B002025
:10580000349C002000F0FFFFFA18B846F9682846DB
:10581000536858F8084F43F001035360E1608C600F
:1058200000F0E4F97EE60CF15B0C4FEA4C0099E6DF
:10583000910901F1380778006BE7D8F800809845A6
:1058400040F0E6801CF0030FA8F108030CF1FF3CC8
:10585000F3D1736823EA01037360490099423FF66C
:1058600024AF00293FF421AF0B42CC467FF4CAAEEF
:1058700049000CF1040C0B42FAD0C3E6DFF89CB1EE
:105880005145DBF800004844CBF8000000F08C8064
:105890001268DFF88CE1013200F0A380C1EB0A014D
:1058A0000844CBF800001AF0070152D0C1F10800FB
:1058B00041F208028244521A0AEB09012846019378
:1058C000C1F30B01C1EB0209494600F02BFE431C5A
:1058D000019B7AD0CAEB00024A4442F00102DBF895
:1058E0000000C6F808A04844CAF80420DFF82C914C
:1058F000CBF80000A3B1B8F10F0F37D97B68A8F13E
:105900000C024FF0050E22F0070203F00103B91854
:1059100013430F2A7B60C1F804E0C1F808E058D8AF
:105920003C4B1A68904200D918603B4BB7681A6824
:10593000904200D918607B6823F003033CE7BCF574
:10594000AA7F17D84FEAD43C0CF1770C4FEA4C00F1
:1059500008E64FF48052AFE7BF1001200A46B84076
:10596000D9F804703843C9F80400E4E60123CAF802
:10597000043027E740F254539C4522D84FEA944C18
:105980000CF17C0C4FEA4C00ECE503F11009FAE64F
:10599000542929D8110B01F16E077800B9E6B768D0
:1059A0007B6823F0030307E7C1F30B0EBEF1000F82
:1059B0007FF46EAF09EB0803B26843F00103536054
:1059C000AEE7FC204FF07E0CCCE501224FF0000941
:1059D00085E7284607F1080101F040FDD9F80000ED
:1059E0009EE7CEF800A05EE7B1F5AA7F04D8D10B00
:1059F00001F1770778008CE640F25450814204D8D8
:105A0000910C01F17C07780083E6FC207E2780E67C
:105A1000736822E7309C00202C9C0020389C0020DA
:105A20007C9B00208307C9B270B43FD0541E002A6B
:105A30003ED003788B4218BF431C05D11CE0ECB16B
:105A40000278013C8A4217D013F0030F184603F185
:105A50000103F4D1032C14D884B103788B420BD00A
:105A60000519431C02E002788A4205D0AB42184671
:105A700003F10103F7D1002070BC7047204670BCD1
:105A8000704741EA0126024646EA064610460432BD
:105A900003687340A3F1013525EA030313F0803F47
:105AA000DAD1043C1046032CF0D8D5E71446D1E7F0
:105AB0001046E1E7844641EA000313F003036DD189
:105AC000403A41D351F8043B40F8043B51F8043BC1
:105AD00040F8043B51F8043B40F8043B51F8043BC8
